:100000000C9434000C9449000C9449000C94490061
:100010000C9449000C9449000C9449000C9449003C
:100020000C9449000C9449000C9449000C9449002C
:100030000C9449000C9449000C9449000C9449001C
:100040000C9449000C9449000C9449000C9449000C
:100050000C9449000C9449000C9449000C944900FC
:100060000C9449000C94490011241FBECFEFD8E036
:10007000DEBFCDBF11E0A0E0B1E0E0E4F2E002C0FD
:1000800005900D92A235B107D9F70E9498000C9403
:100090001E010C940000209A219A229A579A569A8F
:1000A000559A289A5F9A29982A985E985D9808959B
:1000B00080E28093C00088E18093C10086E0809355
:1000C000C2001092C50087E68093C4000895909105
:1000D000C00095FFFCCF8093C60008958091C000BA
:1000E00087FFFCCF8091C6000895299A2A985E9ACE
:1000F0005D98089529982A9A5E985D9A089529989E
:100100002A985E985D980895299A2A985E985D9A33
:10011000089529982A9A5E9A5D980895299A2A98AE
:100120005E985D98089529982A985E9A5D9808953A
:10013000CF93DF93CDB7DEB7C255D1090FB6F89490
:10014000DEBF0FBECDBF88E1E0E0F1E0DE01119639
:1001500001900D928A95E1F783E1E8E1F1E0DE019B
:10016000D09601900D928A95E1F780E1EBE2F1E003
:10017000DE01AD5BBF4F01900D928A95E1F787E1FB
:10018000EBE3F1E0DE01599601900D928A95E1F7DB
:100190000E944B0080E895E20E9458008E010F5F9C
:1001A0001F4FF80181918F01882319F00E94670089
:1001B000F8CF8E01005D1F4FF80181918F018823D8
:1001C00019F00E946700F8CF8E010D5B1F4FF801F8
:1001D00081918F01882319F00E946700F8CF8E016A
:1001E000075E1F4FF80181918F01882339F00E942B
:1001F0006700F8CF823649F40E947A000E946E00B0
:100200008136C1F70E947500F9CF833619F40E9438
:100210008400F4CF843619F40E948900EFCF85362C
:1002200019F40E947F00EACF863619F40E948E00EE
:10023000E5CF873619F70E949300E0CFF894FFCFFF
:100240004453435F4D424D5F53545544595F504FA3
:10025000445F322E300D0A005445414D5F4E414DF2
:10026000455F5350303232390D0A00444F4D4149F9
:100270004E20524F424F5449435300726561647996
:1002800020746F2074616B65206F72646572730DEA
:020290000A0062
:00000001FF
